{
  "contractName": "SimpleFund",
  "abi": [
    {
      "anonymous": false,
      "inputs": [
        {
          "indexed": false,
          "internalType": "uint256",
          "name": "id",
          "type": "uint256"
        },
        {
          "indexed": false,
          "internalType": "address",
          "name": "adr",
          "type": "address"
        }
      ],
      "name": "NewFund",
      "type": "event"
    },
    {
      "constant": true,
      "inputs": [
        {
          "internalType": "uint256",
          "name": "",
          "type": "uint256"
        }
      ],
      "name": "funds",
      "outputs": [
        {
          "internalType": "uint256",
          "name": "eth",
          "type": "uint256"
        },
        {
          "internalType": "uint256",
          "name": "oneinch",
          "type": "uint256"
        },
        {
          "internalType": "uint256",
          "name": "usdt",
          "type": "uint256"
        },
        {
          "internalType": "uint256",
          "name": "startTime",
          "type": "uint256"
        },
        {
          "internalType": "uint256",
          "name": "endTime",
          "type": "uint256"
        },
        {
          "internalType": "address",
          "name": "adr",
          "type": "address"
        }
      ],
      "payable": false,
      "stateMutability": "view",
      "type": "function"
    },
    {
      "constant": false,
      "inputs": [],
      "name": "createFund",
      "outputs": [],
      "payable": false,
      "stateMutability": "nonpayable",
      "type": "function"
    }
  ],
  "bytecode": "0x608060405234801561001057600080fd5b506102e4806100206000396000f3fe608060405234801561001057600080fd5b50600436106100365760003560e01c806328f90acb1461003b5780637b8e889514610045575b600080fd5b6100436100d6565b005b6100716004803603602081101561005b57600080fd5b81019080803590602001909291905050506100e1565b604051808781526020018681526020018581526020018481526020018381526020018273ffffffffffffffffffffffffffffffffffffffff1673ffffffffffffffffffffffffffffffffffffffff168152602001965050505050505060405180910390f35b6100df3361014a565b565b600081815481106100ee57fe5b90600052602060002090600602016000915090508060000154908060010154908060020154908060030154908060040154908060050160009054906101000a900473ffffffffffffffffffffffffffffffffffffffff16905086565b6000600160006040518060c00160405280600081526020016000815260200160008152602001428152602001600081526020018573ffffffffffffffffffffffffffffffffffffffff1681525090806001815401808255809150509060018203906000526020600020906006020160009091929091909150600082015181600001556020820151816001015560408201518160020155606082015181600301556080820151816004015560a08201518160050160006101000a81548173ffffffffffffffffffffffffffffffffffffffff021916908373ffffffffffffffffffffffffffffffffffffffff16021790555050500390507f556ad0b7bce4e8fd8e6bea13e6081dd1d91fb9eb8b4542f98eb9075f49030b6a8183604051808381526020018273ffffffffffffffffffffffffffffffffffffffff1673ffffffffffffffffffffffffffffffffffffffff1681526020019250505060405180910390a1505056fea265627a7a7231582074fd54880ea14247ab1d8ca6b9751f17dd411c6686e4694c9eab4fee4ced966564736f6c63430005100032",
  "source": "pragma solidity ^0.5.0;\n\ncontract SimpleFund {\n\n    event NewFund(uint id, address adr);\n\n    struct Fund { \n        uint eth;\n        uint oneinch;\n        uint usdt;\n        uint startTime;\n        uint endTime;\n        address adr;\n    }\n\n    Fund[] public funds;\n\n    function _createFund(address adr) internal {\n        uint id = funds.push(Fund(0,0,0, now, 0, adr)) - 1;\n        emit NewFund(id, adr);\n    }\n\n    function createFund() public {\n        _createFund(msg.sender);\n    }\n\n}",
  "sourcePath": "/Users/sergejgustun/Documents/GitHub/SimpleFund/contracts/SimpleFund.sol",
  "compiler": {
    "name": "solc",
    "version": "0.5.16+commit.9c3226ce.Emscripten.clang"
  },
  "schemaVersion": "3.4.3",
  "updatedAt": "2021-09-29T14:30:47.300Z",
  "devdoc": {
    "methods": {}
  },
  "userdoc": {
    "methods": {}
  }
}